{
  "contractName": "VPunks",
  "abi": [
    {
      "inputs": [],
      "stateMutability": "nonpayable",
      "type": "constructor"
    },
    {
      "anonymous": false,
      "inputs": [
        {
          "indexed": true,
          "internalType": "address",
          "name": "owner",
          "type": "address"
        },
        {
          "indexed": true,
          "internalType": "address",
          "name": "approved",
          "type": "address"
        },
        {
          "indexed": true,
          "internalType": "uint256",
          "name": "tokenId",
          "type": "uint256"
        }
      ],
      "name": "Approval",
      "type": "event"
    },
    {
      "anonymous": false,
      "inputs": [
        {
          "indexed": true,
          "internalType": "address",
          "name": "owner",
          "type": "address"
        },
        {
          "indexed": true,
          "internalType": "address",
          "name": "operator",
          "type": "address"
        },
        {
          "indexed": false,
          "internalType": "bool",
          "name": "approved",
          "type": "bool"
        }
      ],
      "name": "ApprovalForAll",
      "type": "event"
    },
    {
      "anonymous": false,
      "inputs": [
        {
          "indexed": true,
          "internalType": "address",
          "name": "previousOwner",
          "type": "address"
        },
        {
          "indexed": true,
          "internalType": "address",
          "name": "newOwner",
          "type": "address"
        }
      ],
      "name": "OwnershipTransferred",
      "type": "event"
    },
    {
      "anonymous": false,
      "inputs": [
        {
          "indexed": true,
          "internalType": "bytes32",
          "name": "role",
          "type": "bytes32"
        },
        {
          "indexed": true,
          "internalType": "bytes32",
          "name": "previousAdminRole",
          "type": "bytes32"
        },
        {
          "indexed": true,
          "internalType": "bytes32",
          "name": "newAdminRole",
          "type": "bytes32"
        }
      ],
      "name": "RoleAdminChanged",
      "type": "event"
    },
    {
      "anonymous": false,
      "inputs": [
        {
          "indexed": true,
          "internalType": "bytes32",
          "name": "role",
          "type": "bytes32"
        },
        {
          "indexed": true,
          "internalType": "address",
          "name": "account",
          "type": "address"
        },
        {
          "indexed": true,
          "internalType": "address",
          "name": "sender",
          "type": "address"
        }
      ],
      "name": "RoleGranted",
      "type": "event"
    },
    {
      "anonymous": false,
      "inputs": [
        {
          "indexed": true,
          "internalType": "bytes32",
          "name": "role",
          "type": "bytes32"
        },
        {
          "indexed": true,
          "internalType": "address",
          "name": "account",
          "type": "address"
        },
        {
          "indexed": true,
          "internalType": "address",
          "name": "sender",
          "type": "address"
        }
      ],
      "name": "RoleRevoked",
      "type": "event"
    },
    {
      "anonymous": false,
      "inputs": [
        {
          "indexed": true,
          "internalType": "address",
          "name": "from",
          "type": "address"
        },
        {
          "indexed": true,
          "internalType": "address",
          "name": "to",
          "type": "address"
        },
        {
          "indexed": true,
          "internalType": "uint256",
          "name": "tokenId",
          "type": "uint256"
        }
      ],
      "name": "Transfer",
      "type": "event"
    },
    {
      "inputs": [],
      "name": "DEFAULT_ADMIN_ROLE",
      "outputs": [
        {
          "internalType": "bytes32",
          "name": "",
          "type": "bytes32"
        }
      ],
      "stateMutability": "view",
      "type": "function",
      "constant": true
    },
    {
      "inputs": [],
      "name": "MINTER_ROLE",
      "outputs": [
        {
          "internalType": "bytes32",
          "name": "",
          "type": "bytes32"
        }
      ],
      "stateMutability": "view",
      "type": "function",
      "constant": true
    },
    {
      "inputs": [
        {
          "internalType": "address",
          "name": "to",
          "type": "address"
        },
        {
          "internalType": "uint256",
          "name": "tokenId",
          "type": "uint256"
        }
      ],
      "name": "approve",
      "outputs": [],
      "stateMutability": "nonpayable",
      "type": "function"
    },
    {
      "inputs": [
        {
          "internalType": "address",
          "name": "owner",
          "type": "address"
        }
      ],
      "name": "balanceOf",
      "outputs": [
        {
          "internalType": "uint256",
          "name": "",
          "type": "uint256"
        }
      ],
      "stateMutability": "view",
      "type": "function",
      "constant": true
    },
    {
      "inputs": [],
      "name": "baseURI",
      "outputs": [
        {
          "internalType": "string",
          "name": "",
          "type": "string"
        }
      ],
      "stateMutability": "view",
      "type": "function",
      "constant": true
    },
    {
      "inputs": [
        {
          "internalType": "uint256",
          "name": "tokenId",
          "type": "uint256"
        }
      ],
      "name": "getApproved",
      "outputs": [
        {
          "internalType": "address",
          "name": "",
          "type": "address"
        }
      ],
      "stateMutability": "view",
      "type": "function",
      "constant": true
    },
    {
      "inputs": [
        {
          "internalType": "bytes32",
          "name": "role",
          "type": "bytes32"
        }
      ],
      "name": "getRoleAdmin",
      "outputs": [
        {
          "internalType": "bytes32",
          "name": "",
          "type": "bytes32"
        }
      ],
      "stateMutability": "view",
      "type": "function",
      "constant": true
    },
    {
      "inputs": [
        {
          "internalType": "bytes32",
          "name": "role",
          "type": "bytes32"
        },
        {
          "internalType": "uint256",
          "name": "index",
          "type": "uint256"
        }
      ],
      "name": "getRoleMember",
      "outputs": [
        {
          "internalType": "address",
          "name": "",
          "type": "address"
        }
      ],
      "stateMutability": "view",
      "type": "function",
      "constant": true
    },
    {
      "inputs": [
        {
          "internalType": "bytes32",
          "name": "role",
          "type": "bytes32"
        }
      ],
      "name": "getRoleMemberCount",
      "outputs": [
        {
          "internalType": "uint256",
          "name": "",
          "type": "uint256"
        }
      ],
      "stateMutability": "view",
      "type": "function",
      "constant": true
    },
    {
      "inputs": [
        {
          "internalType": "bytes32",
          "name": "role",
          "type": "bytes32"
        },
        {
          "internalType": "address",
          "name": "account",
          "type": "address"
        }
      ],
      "name": "grantRole",
      "outputs": [],
      "stateMutability": "nonpayable",
      "type": "function"
    },
    {
      "inputs": [
        {
          "internalType": "bytes32",
          "name": "role",
          "type": "bytes32"
        },
        {
          "internalType": "address",
          "name": "account",
          "type": "address"
        }
      ],
      "name": "hasRole",
      "outputs": [
        {
          "internalType": "bool",
          "name": "",
          "type": "bool"
        }
      ],
      "stateMutability": "view",
      "type": "function",
      "constant": true
    },
    {
      "inputs": [],
      "name": "imageHash",
      "outputs": [
        {
          "internalType": "string",
          "name": "",
          "type": "string"
        }
      ],
      "stateMutability": "view",
      "type": "function",
      "constant": true
    },
    {
      "inputs": [
        {
          "internalType": "address",
          "name": "owner",
          "type": "address"
        },
        {
          "internalType": "address",
          "name": "operator",
          "type": "address"
        }
      ],
      "name": "isApprovedForAll",
      "outputs": [
        {
          "internalType": "bool",
          "name": "",
          "type": "bool"
        }
      ],
      "stateMutability": "view",
      "type": "function",
      "constant": true
    },
    {
      "inputs": [],
      "name": "name",
      "outputs": [
        {
          "internalType": "string",
          "name": "",
          "type": "string"
        }
      ],
      "stateMutability": "view",
      "type": "function",
      "constant": true
    },
    {
      "inputs": [],
      "name": "owner",
      "outputs": [
        {
          "internalType": "address",
          "name": "",
          "type": "address"
        }
      ],
      "stateMutability": "view",
      "type": "function",
      "constant": true
    },
    {
      "inputs": [
        {
          "internalType": "uint256",
          "name": "tokenId",
          "type": "uint256"
        }
      ],
      "name": "ownerOf",
      "outputs": [
        {
          "internalType": "address",
          "name": "",
          "type": "address"
        }
      ],
      "stateMutability": "view",
      "type": "function",
      "constant": true
    },
    {
      "inputs": [],
      "name": "renounceOwnership",
      "outputs": [],
      "stateMutability": "nonpayable",
      "type": "function"
    },
    {
      "inputs": [
        {
          "internalType": "bytes32",
          "name": "role",
          "type": "bytes32"
        },
        {
          "internalType": "address",
          "name": "account",
          "type": "address"
        }
      ],
      "name": "renounceRole",
      "outputs": [],
      "stateMutability": "nonpayable",
      "type": "function"
    },
    {
      "inputs": [
        {
          "internalType": "bytes32",
          "name": "role",
          "type": "bytes32"
        },
        {
          "internalType": "address",
          "name": "account",
          "type": "address"
        }
      ],
      "name": "revokeRole",
      "outputs": [],
      "stateMutability": "nonpayable",
      "type": "function"
    },
    {
      "inputs": [
        {
          "internalType": "address",
          "name": "from",
          "type": "address"
        },
        {
          "internalType": "address",
          "name": "to",
          "type": "address"
        },
        {
          "internalType": "uint256",
          "name": "tokenId",
          "type": "uint256"
        }
      ],
      "name": "safeTransferFrom",
      "outputs": [],
      "stateMutability": "nonpayable",
      "type": "function"
    },
    {
      "inputs": [
        {
          "internalType": "address",
          "name": "from",
          "type": "address"
        },
        {
          "internalType": "address",
          "name": "to",
          "type": "address"
        },
        {
          "internalType": "uint256",
          "name": "tokenId",
          "type": "uint256"
        },
        {
          "internalType": "bytes",
          "name": "_data",
          "type": "bytes"
        }
      ],
      "name": "safeTransferFrom",
      "outputs": [],
      "stateMutability": "nonpayable",
      "type": "function"
    },
    {
      "inputs": [
        {
          "internalType": "address",
          "name": "operator",
          "type": "address"
        },
        {
          "internalType": "bool",
          "name": "approved",
          "type": "bool"
        }
      ],
      "name": "setApprovalForAll",
      "outputs": [],
      "stateMutability": "nonpayable",
      "type": "function"
    },
    {
      "inputs": [
        {
          "internalType": "bytes4",
          "name": "interfaceId",
          "type": "bytes4"
        }
      ],
      "name": "supportsInterface",
      "outputs": [
        {
          "internalType": "bool",
          "name": "",
          "type": "bool"
        }
      ],
      "stateMutability": "view",
      "type": "function",
      "constant": true
    },
    {
      "inputs": [],
      "name": "symbol",
      "outputs": [
        {
          "internalType": "string",
          "name": "",
          "type": "string"
        }
      ],
      "stateMutability": "view",
      "type": "function",
      "constant": true
    },
    {
      "inputs": [
        {
          "internalType": "uint256",
          "name": "index",
          "type": "uint256"
        }
      ],
      "name": "tokenByIndex",
      "outputs": [
        {
          "internalType": "uint256",
          "name": "",
          "type": "uint256"
        }
      ],
      "stateMutability": "view",
      "type": "function",
      "constant": true
    },
    {
      "inputs": [
        {
          "internalType": "address",
          "name": "owner",
          "type": "address"
        },
        {
          "internalType": "uint256",
          "name": "index",
          "type": "uint256"
        }
      ],
      "name": "tokenOfOwnerByIndex",
      "outputs": [
        {
          "internalType": "uint256",
          "name": "",
          "type": "uint256"
        }
      ],
      "stateMutability": "view",
      "type": "function",
      "constant": true
    },
    {
      "inputs": [
        {
          "internalType": "uint256",
          "name": "tokenId",
          "type": "uint256"
        }
      ],
      "name": "tokenURI",
      "outputs": [
        {
          "internalType": "string",
          "name": "",
          "type": "string"
        }
      ],
      "stateMutability": "view",
      "type": "function",
      "constant": true
    },
    {
      "inputs": [],
      "name": "totalSupply",
      "outputs": [
        {
          "internalType": "uint256",
          "name": "",
          "type": "uint256"
        }
      ],
      "stateMutability": "view",
      "type": "function",
      "constant": true
    },
    {
      "inputs": [
        {
          "internalType": "address",
          "name": "from",
          "type": "address"
        },
        {
          "internalType": "address",
          "name": "to",
          "type": "address"
        },
        {
          "internalType": "uint256",
          "name": "tokenId",
          "type": "uint256"
        }
      ],
      "name": "transferFrom",
      "outputs": [],
      "stateMutability": "nonpayable",
      "type": "function"
    },
    {
      "inputs": [
        {
          "internalType": "address",
          "name": "newOwner",
          "type": "address"
        }
      ],
      "name": "transferOwnership",
      "outputs": [],
      "stateMutability": "nonpayable",
      "type": "function"
    },
    {
      "inputs": [
        {
          "internalType": "address",
          "name": "",
          "type": "address"
        }
      ],
      "name": "userMintCount",
      "outputs": [
        {
          "internalType": "uint256",
          "name": "",
          "type": "uint256"
        }
      ],
      "stateMutability": "view",
      "type": "function",
      "constant": true
    },
    {
      "inputs": [
        {
          "internalType": "uint256",
          "name": "numberOfNfts",
          "type": "uint256"
        }
      ],
      "name": "mintNFT",
      "outputs": [
        {
          "internalType": "bool[]",
          "name": "results",
          "type": "bool[]"
        }
      ],
      "stateMutability": "payable",
      "type": "function",
      "payable": true
    },
    {
      "inputs": [
        {
          "internalType": "uint256",
          "name": "numberOfNfts",
          "type": "uint256"
        },
        {
          "internalType": "address",
          "name": "to",
          "type": "address"
        }
      ],
      "name": "mintWithRole",
      "outputs": [
        {
          "internalType": "bool[]",
          "name": "results",
          "type": "bool[]"
        }
      ],
      "stateMutability": "payable",
      "type": "function",
      "payable": true
    },
    {
      "inputs": [],
      "name": "getPriceList",
      "outputs": [
        {
          "internalType": "uint256[11]",
          "name": "",
          "type": "uint256[11]"
        }
      ],
      "stateMutability": "view",
      "type": "function",
      "constant": true
    },
    {
      "inputs": [],
      "name": "getMintRolePrice",
      "outputs": [
        {
          "internalType": "uint256",
          "name": "",
          "type": "uint256"
        }
      ],
      "stateMutability": "view",
      "type": "function",
      "constant": true
    },
    {
      "inputs": [],
      "name": "getCurrentPrice",
      "outputs": [
        {
          "internalType": "uint256",
          "name": "",
          "type": "uint256"
        }
      ],
      "stateMutability": "view",
      "type": "function",
      "constant": true
    },
    {
      "inputs": [],
      "name": "remainingNFT",
      "outputs": [
        {
          "internalType": "uint256",
          "name": "result",
          "type": "uint256"
        }
      ],
      "stateMutability": "view",
      "type": "function",
      "constant": true
    },
    {
      "inputs": [
        {
          "internalType": "string",
          "name": "baseURI_",
          "type": "string"
        }
      ],
      "name": "setBaseURI",
      "outputs": [],
      "stateMutability": "nonpayable",
      "type": "function"
    },
    {
      "inputs": [
        {
          "internalType": "uint256[11]",
          "name": "priceList_",
          "type": "uint256[11]"
        }
      ],
      "name": "updatePriceList",
      "outputs": [],
      "stateMutability": "nonpayable",
      "type": "function"
    },
    {
      "inputs": [
        {
          "internalType": "address payable",
          "name": "recipient",
          "type": "address"
        },
        {
          "internalType": "uint256",
          "name": "amount",
          "type": "uint256"
        }
      ],
      "name": "ownerWithdraw",
      "outputs": [],
      "stateMutability": "nonpayable",
      "type": "function"
    },
    {
      "inputs": [
        {
          "internalType": "address payable",
          "name": "recipient",
          "type": "address"
        },
        {
          "internalType": "uint256",
          "name": "amount",
          "type": "uint256"
        }
      ],
      "name": "ownerWithdrawVtho",
      "outputs": [],
      "stateMutability": "nonpayable",
      "type": "function"
    },
    {
      "inputs": [],
      "name": "checkBalances",
      "outputs": [
        {
          "internalType": "uint256",
          "name": "balance",
          "type": "uint256"
        }
      ],
      "stateMutability": "view",
      "type": "function",
      "constant": true
    }
  ],
  "bytecode": "0x6080604052604051806101400160405280600060ff168152602001600060ff168152602001600060ff168152602001600060ff168152602001600060ff168152602001600060ff168152602001600060ff168152602001600060ff168152602001600060ff168152602001600060ff16815250600d90600a6200008492919062000661565b50604051806101400160405280600060ff168152602001600160ff168152602001600260ff168152602001600360ff168152602001600460ff168152602001600560ff168152602001600660ff168152602001600760ff168152602001600860ff168152602001600960ff16815250601790600a62000105929190620006ab565b50612710601855604051806101600160405280600160ff168152602001600260ff168152602001600360ff168152602001600460ff168152602001600560ff168152602001600660ff168152602001600760ff168152602001600860ff168152602001600960ff168152602001600a60ff168152602001600b60ff16815250601990600b6200019692919062000702565b50348015620001a457600080fd5b506040518060400160405280600681526020017f5650756e6b7300000000000000000000000000000000000000000000000000008152506040518060400160405280600581526020017f5650554e4b000000000000000000000000000000000000000000000000000000815250600062000223620003c060201b60201c565b9050806000806101000a81548173ffffffffffffffffffffffffffffffffffffffff021916908373ffffffffffffffffffffffffffffffffffffffff1602179055508073ffffffffffffffffffffffffffffffffffffffff16600073ffffffffffffffffffffffffffffffffffffffff167f8be0079c531659141344cd1fd0a4f28419497f9722a3daafe3b4186f6b6457e060405160405180910390a350620002d96301ffc9a760e01b620003c860201b60201c565b8160089080519060200190620002f19291906200074c565b5080600990805190602001906200030a9291906200074c565b50620003236380ac58cd60e01b620003c860201b60201c565b6200033b635b5e139f60e01b620003c860201b60201c565b6200035363780e9d6360e01b620003c860201b60201c565b5050620003796000801b6200036d620003c060201b60201c565b620004d260201b60201c565b620003ba7f9f2df0fed2c77648de5860a4cc508cd0818c85b8b8a1ab4ceeef8d981c8956a6620003ae620003c060201b60201c565b620004d260201b60201c565b620007f2565b600033905090565b63ffffffff60e01b817bffffffffffffffffffffffffffffffffffffffffffffffffffffffff1916141562000465576040517f08c379a000000000000000000000000000000000000000000000000000000000815260040180806020018281038252601c8152602001807f4552433136353a20696e76616c696420696e746572666163652069640000000081525060200191505060405180910390fd5b600160026000837bffffffffffffffffffffffffffffffffffffffffffffffffffffffff19167bffffffffffffffffffffffffffffffffffffffffffffffffffffffff1916815260200190815260200160002060006101000a81548160ff02191690831515021790555050565b620004e48282620004e860201b60201c565b5050565b6200051781600160008581526020019081526020016000206000016200058c60201b62002fd81790919060201c565b1562000588576200052d620003c060201b60201c565b73ffffffffffffffffffffffffffffffffffffffff168173ffffffffffffffffffffffffffffffffffffffff16837f2f8788117e7eff1d82e926ec794901d17c78024a50270940304540a733656f0d60405160405180910390a45b5050565b6000620005bc836000018373ffffffffffffffffffffffffffffffffffffffff1660001b620005c460201b60201c565b905092915050565b6000620005d883836200063e60201b60201c565b6200063357826000018290806001815401808255809150506001900390600052602060002001600090919091909150558260000180549050836001016000848152602001908152602001600020819055506001905062000638565b600090505b92915050565b600080836001016000848152602001908152602001600020541415905092915050565b82600a810192821562000698579160200282015b8281111562000697578251829060ff1690559160200191906001019062000675565b5b509050620006a79190620007d3565b5090565b828054828255906000526020600020908101928215620006ef579160200282015b82811115620006ee578251829060ff16905591602001919060010190620006cc565b5b509050620006fe9190620007d3565b5090565b82600b810192821562000739579160200282015b8281111562000738578251829060ff1690559160200191906001019062000716565b5b509050620007489190620007d3565b5090565b828054600181600116156101000203166002900490600052602060002090601f016020900481019282601f106200078f57805160ff1916838001178555620007c0565b82800160010185558215620007c0579182015b82811115620007bf578251825591602001919060010190620007a2565b5b509050620007cf9190620007d3565b5090565b5b80821115620007ee576000816000905550600101620007d4565b5090565b614b1280620008026000396000f3fe6080604052600436106102515760003560e01c8063715018a611610139578063b7029144116100b6578063d547741f1161007a578063d547741f146110f6578063d9c88e1414611151578063e4a887a4146111ac578063e985e9c514611220578063eb91d37e146112a7578063f2fde38b146112d257610251565b8063b702914414610e63578063b88d4fde14610eb6578063c87b56dd14610fc8578063ca15c8731461107c578063d5391393146110cb57610251565b806392642744116100fd5780639264274414610c9d57806395d89b4114610d205780639e241e8514610db0578063a217fddf14610ddb578063a22cb46514610e0657610251565b8063715018a614610ac25780638da5cb5b14610ad95780638f13259314610b1a5780639010d07c14610bbd57806391d1485414610c2c57610251565b806336568abe116101d25780634f6ccce7116101965780634f6ccce7146107c157806351605d801461081057806355f804b3146108a05780636352211e146109685780636c0360eb146109cd57806370a0823114610a5d57610251565b806336568abe146106005780633950891f1461065b57806342842e0e146106c057806347c01d331461073b5780634b03d4221461079657610251565b80631c96731a116102195780631c96731a1461044157806323b872dd1461046c578063248a9ca3146104e75780632f2ff15d146105365780632f745c591461059157610251565b806301ffc9a71461025657806306fdde03146102c6578063081812fc14610356578063095ea7b3146103bb57806318160ddd14610416575b600080fd5b34801561026257600080fd5b506102ae6004803603602081101561027957600080fd5b8101908080357bffffffffffffffffffffffffffffffffffffffffffffffffffffffff19169060200190929190505050611323565b60405180821515815260200191505060405180910390f35b3480156102d257600080fd5b506102db61138b565b6040518080602001828103825283818151815260200191508051906020019080838360005b8381101561031b578082015181840152602081019050610300565b50505050905090810190601f1680156103485780820380516001836020036101000a031916815260200191505b509250505060405180910390f35b34801561036257600080fd5b5061038f6004803603602081101561037957600080fd5b810190808035906020019092919050505061142d565b604051808273ffffffffffffffffffffffffffffffffffffffff16815260200191505060405180910390f35b3480156103c757600080fd5b50610414600480360360408110156103de57600080fd5b81019080803573ffffffffffffffffffffffffffffffffffffffff169060200190929190803590602001909291905050506114c8565b005b34801561042257600080fd5b5061042b61160c565b6040518082815260200191505060405180910390f35b34801561044d57600080fd5b5061045661161d565b6040518082815260200191505060405180910390f35b34801561047857600080fd5b506104e56004803603606081101561048f57600080fd5b81019080803573ffffffffffffffffffffffffffffffffffffffff169060200190929190803573ffffffffffffffffffffffffffffffffffffffff16906020019092919080359060200190929190505050611656565b005b3480156104f357600080fd5b506105206004803603602081101561050a57600080fd5b81019080803590602001909291905050506116cc565b6040518082815260200191505060405180910390f35b34801561054257600080fd5b5061058f6004803603604081101561055957600080fd5b8101908080359060200190929190803573ffffffffffffffffffffffffffffffffffffffff1690602001909291905050506116ec565b005b34801561059d57600080fd5b506105ea600480360360408110156105b457600080fd5b81019080803573ffffffffffffffffffffffffffffffffffffffff16906020019092919080359060200190929190505050611776565b6040518082815260200191505060405180910390f35b34801561060c57600080fd5b506106596004803603604081101561062357600080fd5b8101908080359060200190929190803573ffffffffffffffffffffffffffffffffffffffff1690602001909291905050506117d1565b005b34801561066757600080fd5b506106aa6004803603602081101561067e57600080fd5b81019080803573ffffffffffffffffffffffffffffffffffffffff16906020019092919050505061186a565b6040518082815260200191505060405180910390f35b3480156106cc57600080fd5b50610739600480360360608110156106e357600080fd5b81019080803573ffffffffffffffffffffffffffffffffffffffff169060200190929190803573ffffffffffffffffffffffffffffffffffffffff16906020019092919080359060200190929190505050611882565b005b34801561074757600080fd5b506107946004803603604081101561075e57600080fd5b81019080803573ffffffffffffffffffffffffffffffffffffffff169060200190929190803590602001909291905050506118a2565b005b3480156107a257600080fd5b506107ab611a08565b6040518082815260200191505060405180910390f35b3480156107cd57600080fd5b506107fa600480360360208110156107e457600080fd5b8101908080359060200190929190505050611a1f565b6040518082815260200191505060405180910390f35b34801561081c57600080fd5b50610825611a42565b6040518080602001828103825283818151815260200191508051906020019080838360005b8381101561086557808201518184015260208101905061084a565b50505050905090810190601f1680156108925780820380516001836020036101000a031916815260200191505b509250505060405180910390f35b3480156108ac57600080fd5b50610966600480360360208110156108c357600080fd5b81019080803590602001906401000000008111156108e057600080fd5b8201836020820111156108f257600080fd5b8035906020019184600183028401116401000000008311171561091457600080fd5b91908080601f016020809104026020016040519081016040528093929190818152602001838380828437600081840152601f19601f820116905080830192505050505050509192919290505050611a5e565b005b34801561097457600080fd5b506109a16004803603602081101561098b57600080fd5b8101908080359060200190929190505050611b19565b604051808273ffffffffffffffffffffffffffffffffffffffff16815260200191505060405180910390f35b3480156109d957600080fd5b506109e2611b50565b6040518080602001828103825283818151815260200191508051906020019080838360005b83811015610a22578082015181840152602081019050610a07565b50505050905090810190601f168015610a4f5780820380516001836020036101000a031916815260200191505b509250505060405180910390f35b348015610a6957600080fd5b50610aac60048036036020811015610a8057600080fd5b81019080803573ffffffffffffffffffffffffffffffffffffffff169060200190929190505050611bf2565b6040518082815260200191505060405180910390f35b348015610ace57600080fd5b50610ad7611cc7565b005b348015610ae557600080fd5b50610aee611e34565b604051808273ffffffffffffffffffffffffffffffffffffffff16815260200191505060405180910390f35b610b6660048036036040811015610b3057600080fd5b8101908080359060200190929190803573ffffffffffffffffffffffffffffffffffffffff169060200190929190505050611e5d565b6040518080602001828103825283818151815260200191508051906020019060200280838360005b83811015610ba9578082015181840152602081019050610b8e565b505050509050019250505060405180910390f35b348015610bc957600080fd5b50610c0060048036036040811015610be057600080fd5b81019080803590602001909291908035906020019092919050505061205e565b604051808273ffffffffffffffffffffffffffffffffffffffff16815260200191505060405180910390f35b348015610c3857600080fd5b50610c8560048036036040811015610c4f57600080fd5b8101908080359060200190929190803573ffffffffffffffffffffffffffffffffffffffff169060200190929190505050612090565b60405180821515815260200191505060405180910390f35b610cc960048036036020811015610cb357600080fd5b81019080803590602001909291905050506120c2565b6040518080602001828103825283818151815260200191508051906020019060200280838360005b83811015610d0c578082015181840152602081019050610cf1565b505050509050019250505060405180910390f35b348015610d2c57600080fd5b50610d3561226b565b6040518080602001828103825283818151815260200191508051906020019080838360005b83811015610d75578082015181840152602081019050610d5a565b50505050905090810190601f168015610da25780820380516001836020036101000a031916815260200191505b509250505060405180910390f35b348015610dbc57600080fd5b50610dc561230d565b6040518082815260200191505060405180910390f35b348015610de757600080fd5b50610df06123c4565b6040518082815260200191505060405180910390f35b348015610e1257600080fd5b50610e6160048036036040811015610e2957600080fd5b81019080803573ffffffffffffffffffffffffffffffffffffffff1690602001909291908035151590602001909291905050506123cb565b005b348015610e6f57600080fd5b50610e78612581565b6040518082600b60200280838360005b83811015610ea3578082015181840152602081019050610e88565b5050505090500191505060405180910390f35b348015610ec257600080fd5b50610fc660048036036080811015610ed957600080fd5b81019080803573ffffffffffffffffffffffffffffffffffffffff169060200190929190803573ffffffffffffffffffffffffffffffffffffffff1690602001909291908035906020019092919080359060200190640100000000811115610f4057600080fd5b820183602082011115610f5257600080fd5b80359060200191846001830284011164010000000083111715610f7457600080fd5b91908080601f016020809104026020016040519081016040528093929190818152602001838380828437600081840152601f19601f8201169050808301925050505050505091929192905050506125cc565b005b348015610fd457600080fd5b5061100160048036036020811015610feb57600080fd5b8101908080359060200190929190505050612644565b6040518080602001828103825283818151815260200191508051906020019080838360005b83811015611041578082015181840152602081019050611026565b50505050905090810190601f16801561106e5780820380516001836020036101000a031916815260200191505b509250505060405180910390f35b34801561108857600080fd5b506110b56004803603602081101561109f57600080fd5b8101908080359060200190929190505050612915565b6040518082815260200191505060405180910390f35b3480156110d757600080fd5b506110e061293c565b6040518082815260200191505060405180910390f35b34801561110257600080fd5b5061114f6004803603604081101561111957600080fd5b8101908080359060200190929190803573ffffffffffffffffffffffffffffffffffffffff169060200190929190505050612960565b005b34801561115d57600080fd5b506111aa6004803603604081101561117457600080fd5b81019080803573ffffffffffffffffffffffffffffffffffffffff169060200190929190803590602001909291905050506129ea565b005b3480156111b857600080fd5b5061121e60048036036101608110156111d057600080fd5b81019080806101600190600b806020026040519081016040528092919082600b60200280828437600081840152601f19601f8201169050808301925050505050509192919290505050612c35565b005b34801561122c57600080fd5b5061128f6004803603604081101561124357600080fd5b81019080803573ffffffffffffffffffffffffffffffffffffffff169060200190929190803573ffffffffffffffffffffffffffffffffffffffff169060200190929190505050612cf9565b60405180821515815260200191505060405180910390f35b3480156112b357600080fd5b506112bc612d8d565b6040518082815260200191505060405180910390f35b3480156112de57600080fd5b50611321600480360360208110156112f557600080fd5b81019080803573ffffffffffffffffffffffffffffffffffffffff169060200190929190505050612de6565b005b600060026000837bffffffffffffffffffffffffffffffffffffffffffffffffffffffff19167bffffffffffffffffffffffffffffffffffffffffffffffffffffffff1916815260200190815260200160002060009054906101000a900460ff169050919050565b606060088054600181600116156101000203166002900480601f0160208091040260200160405190810160405280929190818152602001828054600181600116156101000203166002900480156114235780601f106113f857610100808354040283529160200191611423565b820191906000526020600020905b81548152906001019060200180831161140657829003601f168201915b5050505050905090565b600061143882613008565b61148d576040517f08c379a000000000000000000000000000000000000000000000000000000000815260040180806020018281038252602c815260200180614998602c913960400191505060405180910390fd5b6006600083815260200190815260200160002060009054906101000a900473ffffffffffffffffffffffffffffffffffffffff169050919050565b60006114d382611b19565b90508073ffffffffffffffffffffffffffffffffffffffff168373ffffffffffffffffffffffffffffffffffffffff16141561155a576040517f08c379a0000000000000000000000000000000000000000000000000000000008152600401808060200182810382526021815260200180614a5c6021913960400191505060405180910390fd5b8073ffffffffffffffffffffffffffffffffffffffff16611579613025565b73ffffffffffffffffffffffffffffffffffffffff1614806115a857506115a7816115a2613025565b612cf9565b5b6115fd576040517f08c379a00000000000000000000000000000000000000000000000000000000081526004018080602001828103825260388152602001806148eb6038913960400191505060405180910390fd5b611607838361302d565b505050565b600061161860046130e6565b905090565b600080600090505b600a81101561165257600d81600a811061163b57fe5b01546103e803820191508080600101915050611625565b5090565b611667611661613025565b826130fb565b6116bc576040517f08c379a0000000000000000000000000000000000000000000000000000000008152600401808060200182810382526031815260200180614a7d6031913960400191505060405180910390fd5b6116c78383836131ef565b505050565b600060016000838152602001908152602001600020600201549050919050565b611713600160008481526020019081526020016000206002015461170e613025565b612090565b611768576040517f08c379a000000000000000000000000000000000000000000000000000000000815260040180806020018281038252602f8152602001806147be602f913960400191505060405180910390fd5b6117728282613432565b5050565b60006117c982600360008673ffffffffffffffffffffffffffffffffffffffff1673ffffffffffffffffffffffffffffffffffffffff1681526020019081526020016000206134c690919063ffffffff16565b905092915050565b6117d9613025565b73ffffffffffffffffffffffffffffffffffffffff168173ffffffffffffffffffffffffffffffffffffffff161461185c576040517f08c379a000000000000000000000000000000000000000000000000000000000815260040180806020018281038252602f815260200180614aae602f913960400191505060405180910390fd5b61186682826134e0565b5050565b600c6020528060005260406000206000915090505481565b61189d838383604051806020016040528060008152506125cc565b505050565b6118aa613025565b73ffffffffffffffffffffffffffffffffffffffff166118c8611e34565b73ffffffffffffffffffffffffffffffffffffffff1614611951576040517f08c379a00000000000000000000000000000000000000000000000000000000081526004018080602001828103825260208152602001807f4f776e61626c653a2063616c6c6572206973206e6f7420746865206f776e657281525060200191505060405180910390fd5b65456e6572677973ffffffffffffffffffffffffffffffffffffffff1663a9059cbb83836040518363ffffffff1660e01b8152600401808373ffffffffffffffffffffffffffffffffffffffff16815260200182815260200192505050602060405180830381600087803b1580156119c857600080fd5b505af11580156119dc573d6000803e3d6000fd5b505050506040513d60208110156119f257600080fd5b8101908080519060200190929190505050505050565b60006019600a600b8110611a1857fe5b0154905090565b600080611a3683600461357490919063ffffffff16565b50905080915050919050565b6040518060600160405280604081526020016149c46040913981565b611a66613025565b73ffffffffffffffffffffffffffffffffffffffff16611a84611e34565b73ffffffffffffffffffffffffffffffffffffffff1614611b0d576040517f08c379a00000000000000000000000000000000000000000000000000000000081526004018080602001828103825260208152602001807f4f776e61626c653a2063616c6c6572206973206e6f7420746865206f776e657281525060200191505060405180910390fd5b611b16816135a0565b50565b6000611b498260405180606001604052806029815260200161494d6029913960046135ba9092919063ffffffff16565b9050919050565b6060600b8054600181600116156101000203166002900480601f016020809104026020016040519081016040528092919081815260200182805460018160011615610100020316600290048015611be85780601f10611bbd57610100808354040283529160200191611be8565b820191906000526020600020905b815481529060010190602001808311611bcb57829003601f168201915b5050505050905090565b60008073ffffffffffffffffffffffffffffffffffffffff168273ffffffffffffffffffffffffffffffffffffffff161415611c79576040517f08c379a000000000000000000000000000000000000000000000000000000000815260040180806020018281038252602a815260200180614923602a913960400191505060405180910390fd5b611cc0600360008473ffffffffffffffffffffffffffffffffffffffff1673ffffffffffffffffffffffffffffffffffffffff1681526020019081526020016000206135d9565b9050919050565b611ccf613025565b73ffffffffffffffffffffffffffffffffffffffff16611ced611e34565b73ffffffffffffffffffffffffffffffffffffffff1614611d76576040517f08c379a00000000000000000000000000000000000000000000000000000000081526004018080602001828103825260208152602001807f4f776e61626c653a2063616c6c6572206973206e6f7420746865206f776e657281525060200191505060405180910390fd5b600073ffffffffffffffffffffffffffffffffffffffff1660008054906101000a900473ffffffffffffffffffffffffffffffffffffffff1673ffffffffffffffffffffffffffffffffffffffff167f8be0079c531659141344cd1fd0a4f28419497f9722a3daafe3b4186f6b6457e060405160405180910390a360008060006101000a81548173ffffffffffffffffffffffffffffffffffffffff021916908373ffffffffffffffffffffffffffffffffffffffff160217905550565b60008060009054906101000a900473ffffffffffffffffffffffffffffffffffffffff16905090565b6060611e907f9f2df0fed2c77648de5860a4cc508cd0818c85b8b8a1ab4ceeef8d981c8956a6611e8b613025565b612090565b611f02576040517f08c379a00000000000000000000000000000000000000000000000000000000081526004018080602001828103825260028152602001807f453100000000000000000000000000000000000000000000000000000000000081525060200191505060405180910390fd5b8267ffffffffffffffff81118015611f1957600080fd5b50604051908082528060200260200182016040528015611f485781602001602082028036833780820191505090505b509050600034905060006019600a600b8110611f6057fe5b0154905060005b85811015611ffd5781831015611f7c57611ffd565b60001515611f8b601854613008565b15151415611fdf57611f9f856018546135ee565b6000821115611fbe57611fbb828461360c90919063ffffffff16565b92505b6001848281518110611fcc57fe5b6020026020010190151590811515815250505b60016018600082825401925050819055508080600101915050611f67565b5060008211156120565761200f613025565b73ffffffffffffffffffffffffffffffffffffffff166108fc839081150290604051600060405180830381858888f19350505050158015612054573d6000803e3d6000fd5b505b505092915050565b6000612088826001600086815260200190815260200160002060000161368f90919063ffffffff16565b905092915050565b60006120ba82600160008681526020019081526020016000206000016136a990919063ffffffff16565b905092915050565b60608167ffffffffffffffff811180156120db57600080fd5b5060405190808252806020026020018201604052801561210a5781602001602082028036833780820191505090505b5090506000349050600061211c612d8d565b905060005b8481101561220b57818310156121365761220b565b6000612141826136d9565b905061214c81613008565b1561215757506121fe565b612168612162613025565b826135ee565b600083111561218757612184838561360c90919063ffffffff16565b93505b600185838151811061219557fe5b6020026020010190151590811515815250506001600c60006121b5613025565b73ffffffffffffffffffffffffffffffffffffffff1673ffffffffffffffffffffffffffffffffffffffff16815260200190815260200160002060008282540192505081905550505b8080600101915050612121565b5060008211156122645761221d613025565b73ffffffffffffffffffffffffffffffffffffffff166108fc839081150290604051600060405180830381858888f19350505050158015612262573d6000803e3d6000fd5b505b5050919050565b606060098054600181600116156101000203166002900480601f0160208091040260200160405190810160405280929190818152602001828054600181600116156101000203166002900480156123035780601f106122d857610100808354040283529160200191612303565b820191906000526020600020905b8154815290600101906020018083116122e657829003601f168201915b5050505050905090565b6000612317613025565b73ffffffffffffffffffffffffffffffffffffffff16612335611e34565b73ffffffffffffffffffffffffffffffffffffffff16146123be576040517f08c379a00000000000000000000000000000000000000000000000000000000081526004018080602001828103825260208152602001807f4f776e61626c653a2063616c6c6572206973206e6f7420746865206f776e657281525060200191505060405180910390fd5b47905090565b6000801b81565b6123d3613025565b73ffffffffffffffffffffffffffffffffffffffff168273ffffffffffffffffffffffffffffffffffffffff161415612474576040517f08c379a00000000000000000000000000000000000000000000000000000000081526004018080602001828103825260198152602001807f4552433732313a20617070726f766520746f2063616c6c65720000000000000081525060200191505060405180910390fd5b8060076000612481613025565b73ffffffffffffffffffffffffffffffffffffffff1673ffffffffffffffffffffffffffffffffffffffff16815260200190815260200160002060008473ffffffffffffffffffffffffffffffffffffffff1673ffffffffffffffffffffffffffffffffffffffff16815260200190815260200160002060006101000a81548160ff0219169083151502179055508173ffffffffffffffffffffffffffffffffffffffff1661252e613025565b73ffffffffffffffffffffffffffffffffffffffff167f17307eab39ab6107e8899845ad3d59bd9653f200f220920489ca2b5937696c318360405180821515815260200191505060405180910390a35050565b61258961469b565b6019600b806020026040519081016040528092919082600b80156125c2576020028201915b8154815260200190600101908083116125ae575b5050505050905090565b6125dd6125d7613025565b836130fb565b612632576040517f08c379a0000000000000000000000000000000000000000000000000000000008152600401808060200182810382526031815260200180614a7d6031913960400191505060405180910390fd5b61263e84848484613849565b50505050565b606061264f82613008565b6126a4576040517f08c379a000000000000000000000000000000000000000000000000000000000815260040180806020018281038252602f815260200180614a2d602f913960400191505060405180910390fd5b6060600a60008481526020019081526020016000208054600181600116156101000203166002900480601f01602080910402602001604051908101604052809291908181526020018280546001816001161561010002031660029004801561274d5780601f106127225761010080835404028352916020019161274d565b820191906000526020600020905b81548152906001019060200180831161273057829003601f168201915b50505050509050606061275e611b50565b9050600081511415612774578192505050612910565b6000825111156128455780826040516020018083805190602001908083835b602083106127b65780518252602082019150602081019050602083039250612793565b6001836020036101000a03801982511681845116808217855250505050505090500182805190602001908083835b6020831061280757805182526020820191506020810190506020830392506127e4565b6001836020036101000a0380198251168184511680821785525050505050509050019250505060405160208183030381529060405292505050612910565b8061284f856138bb565b6040516020018083805190602001908083835b602083106128855780518252602082019150602081019050602083039250612862565b6001836020036101000a03801982511681845116808217855250505050505090500182805190602001908083835b602083106128d657805182526020820191506020810190506020830392506128b3565b6001836020036101000a03801982511681845116808217855250505050505090500192505050604051602081830303815290604052925050505b919050565b600061293560016000848152602001908152602001600020600001613a02565b9050919050565b7f9f2df0fed2c77648de5860a4cc508cd0818c85b8b8a1ab4ceeef8d981c8956a681565b6129876001600084815260200190815260200160002060020154612982613025565b612090565b6129dc576040517f08c379a00000000000000000000000000000000000000000000000000000000081526004018080602001828103825260308152602001806148bb6030913960400191505060405180910390fd5b6129e682826134e0565b5050565b6129f2613025565b73ffffffffffffffffffffffffffffffffffffffff16612a10611e34565b73ffffffffffffffffffffffffffffffffffffffff1614612a99576040517f08c379a00000000000000000000000000000000000000000000000000000000081526004018080602001828103825260208152602001807f4f776e61626c653a2063616c6c6572206973206e6f7420746865206f776e657281525060200191505060405180910390fd5b600073ffffffffffffffffffffffffffffffffffffffff168273ffffffffffffffffffffffffffffffffffffffff161415612b3c576040517f08c379a00000000000000000000000000000000000000000000000000000000081526004018080602001828103825260028152602001807f453200000000000000000000000000000000000000000000000000000000000081525060200191505060405180910390fd5b3073ffffffffffffffffffffffffffffffffffffffff168273ffffffffffffffffffffffffffffffffffffffff161415612bde576040517f08c379a00000000000000000000000000000000000000000000000000000000081526004018080602001828103825260028152602001807f453300000000000000000000000000000000000000000000000000000000000081525060200191505060405180910390fd5b47811115612bea574790505b8173ffffffffffffffffffffffffffffffffffffffff166108fc829081150290604051600060405180830381858888f19350505050158015612c30573d6000803e3d6000fd5b505050565b612c3d613025565b73ffffffffffffffffffffffffffffffffffffffff16612c5b611e34565b73ffffffffffffffffffffffffffffffffffffffff1614612ce4576040517f08c379a00000000000000000000000000000000000000000000000000000000081526004018080602001828103825260208152602001807f4f776e61626c653a2063616c6c6572206973206e6f7420746865206f776e657281525060200191505060405180910390fd5b80601990600b612cf59291906146be565b5050565b6000600760008473ffffffffffffffffffffffffffffffffffffffff1673ffffffffffffffffffffffffffffffffffffffff16815260200190815260200160002060008373ffffffffffffffffffffffffffffffffffffffff1673ffffffffffffffffffffffffffffffffffffffff16815260200190815260200160002060009054906101000a900460ff16905092915050565b600080600090506000805b600a811015612dc157600d81600a8110612dae57fe5b0154830192508080600101915050612d98565b506103e88281612dcd57fe5b049050601981600b8110612ddd57fe5b01549250505090565b612dee613025565b73ffffffffffffffffffffffffffffffffffffffff16612e0c611e34565b73ffffffffffffffffffffffffffffffffffffffff1614612e95576040517f08c379a00000000000000000000000000000000000000000000000000000000081526004018080602001828103825260208152602001807f4f776e61626c653a2063616c6c6572206973206e6f7420746865206f776e657281525060200191505060405180910390fd5b600073ffffffffffffffffffffffffffffffffffffffff168173ffffffffffffffffffffffffffffffffffffffff161415612f1b576040517f08c379a000000000000000000000000000000000000000000000000000000000815260040180806020018281038252602681526020018061481f6026913960400191505060405180910390fd5b8073ffffffffffffffffffffffffffffffffffffffff1660008054906101000a900473ffffffffffffffffffffffffffffffffffffffff1673ffffffffffffffffffffffffffffffffffffffff167f8be0079c531659141344cd1fd0a4f28419497f9722a3daafe3b4186f6b6457e060405160405180910390a3806000806101000a81548173ffffffffffffffffffffffffffffffffffffffff021916908373ffffffffffffffffffffffffffffffffffffffff16021790555050565b6000613000836000018373ffffffffffffffffffffffffffffffffffffffff1660001b613a17565b905092915050565b600061301e826004613a8790919063ffffffff16565b9050919050565b600033905090565b816006600083815260200190815260200160002060006101000a81548173ffffffffffffffffffffffffffffffffffffffff021916908373ffffffffffffffffffffffffffffffffffffffff160217905550808273ffffffffffffffffffffffffffffffffffffffff166130a083611b19565b73ffffffffffffffffffffffffffffffffffffffff167f8c5be1e5ebec7d5bd14f71427d1e84f3dd0314c0f7b2291e5b200ac8c7c3b92560405160405180910390a45050565b60006130f482600001613aa1565b9050919050565b600061310682613008565b61315b576040517f08c379a000000000000000000000000000000000000000000000000000000000815260040180806020018281038252602c81526020018061488f602c913960400191505060405180910390fd5b600061316683611b19565b90508073ffffffffffffffffffffffffffffffffffffffff168473ffffffffffffffffffffffffffffffffffffffff1614806131d557508373ffffffffffffffffffffffffffffffffffffffff166131bd8461142d565b73ffffffffffffffffffffffffffffffffffffffff16145b806131e657506131e58185612cf9565b5b91505092915050565b8273ffffffffffffffffffffffffffffffffffffffff1661320f82611b19565b73ffffffffffffffffffffffffffffffffffffffff161461327b576040517f08c379a0000000000000000000000000000000000000000000000000000000008152600401808060200182810382526029815260200180614a046029913960400191505060405180910390fd5b600073ffffffffffffffffffffffffffffffffffffffff168273ffffffffffffffffffffffffffffffffffffffff161415613301576040517f08c379a00000000000000000000000000000000000000000000000000000000081526004018080602001828103825260248152602001806148456024913960400191505060405180910390fd5b61330c838383613ab2565b61331760008261302d565b61336881600360008673ffffffffffffffffffffffffffffffffffffffff1673ffffffffffffffffffffffffffffffffffffffff168152602001908152602001600020613ab790919063ffffffff16565b506133ba81600360008573ffffffffffffffffffffffffffffffffffffffff1673ffffffffffffffffffffffffffffffffffffffff168152602001908152602001600020613ad190919063ffffffff16565b506133d181836004613aeb9092919063ffffffff16565b50808273ffffffffffffffffffffffffffffffffffffffff168473ffffffffffffffffffffffffffffffffffffffff167fddf252ad1be2c89b69c2b068fc378daa952ba7f163c4a11628f55a4df523b3ef60405160405180910390a4505050565b61345a8160016000858152602001908152602001600020600001612fd890919063ffffffff16565b156134c257613467613025565b73ffffffffffffffffffffffffffffffffffffffff168173ffffffffffffffffffffffffffffffffffffffff16837f2f8788117e7eff1d82e926ec794901d17c78024a50270940304540a733656f0d60405160405180910390a45b5050565b60006134d58360000183613b20565b60001c905092915050565b6135088160016000858152602001908152602001600020600001613ba390919063ffffffff16565b1561357057613515613025565b73ffffffffffffffffffffffffffffffffffffffff168173ffffffffffffffffffffffffffffffffffffffff16837ff6391f5c32d9c69d2a47ea670b442974b53935d1edc7fd64eb21e047a839171b60405160405180910390a45b5050565b6000806000806135878660000186613bd3565b915091508160001c8160001c9350935050509250929050565b80600b90805190602001906135b69291906146fe565b5050565b60006135cd846000018460001b84613c6c565b60001c90509392505050565b60006135e782600001613d62565b9050919050565b613608828260405180602001604052806000815250613d73565b5050565b600082821115613684576040517f08c379a000000000000000000000000000000000000000000000000000000000815260040180806020018281038252601e8152602001807f536166654d6174683a207375627472616374696f6e206f766572666c6f77000081525060200191505060405180910390fd5b818303905092915050565b600061369e8360000183613b20565b60001c905092915050565b60006136d1836000018373ffffffffffffffffffffffffffffffffffffffff1660001b613de4565b905092915050565b600080601780549050905060008114156136f7576000915050613844565b600081844201604051602001808281526020019150506040516020818303038152906040528051906020012060001c8161372d57fe5b06905060006103e86017838154811061374257fe5b906000526020600020015402600d6017848154811061375d57fe5b9060005260206000200154600a811061377257fe5b01540190506001600d6017848154811061378857fe5b9060005260206000200154600a811061379d57fe5b01600082825401925050819055506103e8600d601784815481106137bd57fe5b9060005260206000200154600a81106137d257fe5b01541061383d576001830382101561381b57601760018403815481106137f457fe5b90600052602060002001546017838154811061380c57fe5b90600052602060002001819055505b601780548061382657fe5b600190038181906000526020600020016000905590555b8093505050505b919050565b6138548484846131ef565b61386084848484613e07565b6138b5576040517f08c379a00000000000000000000000000000000000000000000000000000000081526004018080602001828103825260328152602001806147ed6032913960400191505060405180910390fd5b50505050565b60606000821415613903576040518060400160405280600181526020017f300000000000000000000000000000000000000000000000000000000000000081525090506139fd565b600082905060005b6000821461392d578080600101915050600a828161392557fe5b04915061390b565b60608167ffffffffffffffff8111801561394657600080fd5b506040519080825280601f01601f1916602001820160405280156139795781602001600182028036833780820191505090505b50905060006001830390508593505b600084146139f557600a848161399a57fe5b0660300160f81b828280600190039350815181106139b457fe5b60200101907effffffffffffffffffffffffffffffffffffffffffffffffffffffffffffff1916908160001a905350600a84816139ed57fe5b049350613988565b819450505050505b919050565b6000613a1082600001613d62565b9050919050565b6000613a238383613de4565b613a7c578260000182908060018154018082558091505060019003906000526020600020016000909190919091505582600001805490508360010160008481526020019081526020016000208190555060019050613a81565b600090505b92915050565b6000613a99836000018360001b614020565b905092915050565b600081600001805490509050919050565b505050565b6000613ac9836000018360001b614043565b905092915050565b6000613ae3836000018360001b613a17565b905092915050565b6000613b17846000018460001b8473ffffffffffffffffffffffffffffffffffffffff1660001b61412b565b90509392505050565b600081836000018054905011613b81576040517f08c379a000000000000000000000000000000000000000000000000000000000815260040180806020018281038252602281526020018061479c6022913960400191505060405180910390fd5b826000018281548110613b9057fe5b9060005260206000200154905092915050565b6000613bcb836000018373ffffffffffffffffffffffffffffffffffffffff1660001b614043565b905092915050565b60008082846000018054905011613c35576040517f08c379a00000000000000000000000000000000000000000000000000000000081526004018080602001828103825260228152602001806149766022913960400191505060405180910390fd5b6000846000018481548110613c4657fe5b906000526020600020906002020190508060000154816001015492509250509250929050565b60008084600101600085815260200190815260200160002054905060008114158390613d33576040517f08c379a00000000000000000000000000000000000000000000000000000000081526004018080602001828103825283818151815260200191508051906020019080838360005b83811015613cf8578082015181840152602081019050613cdd565b50505050905090810190601f168015613d255780820380516001836020036101000a031916815260200191505b509250505060405180910390fd5b50846000016001820381548110613d4657fe5b9060005260206000209060020201600101549150509392505050565b600081600001805490509050919050565b613d7d8383614207565b613d8a6000848484613e07565b613ddf576040517f08c379a00000000000000000000000000000000000000000000000000000000081526004018080602001828103825260328152602001806147ed6032913960400191505060405180910390fd5b505050565b600080836001016000848152602001908152602001600020541415905092915050565b6000613e288473ffffffffffffffffffffffffffffffffffffffff166143fb565b613e355760019050614018565b6060613f9f63150b7a0260e01b613e4a613025565b888787604051602401808573ffffffffffffffffffffffffffffffffffffffff1681526020018473ffffffffffffffffffffffffffffffffffffffff16815260200183815260200180602001828103825283818151815260200191508051906020019080838360005b83811015613ece578082015181840152602081019050613eb3565b50505050905090810190601f168015613efb5780820380516001836020036101000a031916815260200191505b5095505050505050604051602081830303815290604052907bffffffffffffffffffffffffffffffffffffffffffffffffffffffff19166020820180517bffffffffffffffffffffffffffffffffffffffffffffffffffffffff83818316178352505050506040518060600160405280603281526020016147ed603291398773ffffffffffffffffffffffffffffffffffffffff1661440e9092919063ffffffff16565b90506000818060200190516020811015613fb857600080fd5b8101908080519060200190929190505050905063150b7a0260e01b7bffffffffffffffffffffffffffffffffffffffffffffffffffffffff1916817bffffffffffffffffffffffffffffffffffffffffffffffffffffffff191614925050505b949350505050565b600080836001016000848152602001908152602001600020541415905092915050565b6000808360010160008481526020019081526020016000205490506000811461411f576000600182039050600060018660000180549050039050600086600001828154811061408e57fe5b90600052602060002001549050808760000184815481106140ab57fe5b90600052602060002001819055506001830187600101600083815260200190815260200160002081905550866000018054806140e357fe5b60019003818190600052602060002001600090559055866001016000878152602001908152602001600020600090556001945050505050614125565b60009150505b92915050565b60008084600101600085815260200190815260200160002054905060008114156141d257846000016040518060400160405280868152602001858152509080600181540180825580915050600190039060005260206000209060020201600090919091909150600082015181600001556020820151816001015550508460000180549050856001016000868152602001908152602001600020819055506001915050614200565b828560000160018303815481106141e557fe5b90600052602060002090600202016001018190555060009150505b9392505050565b600073ffffffffffffffffffffffffffffffffffffffff168273ffffffffffffffffffffffffffffffffffffffff1614156142aa576040517f08c379a00000000000000000000000000000000000000000000000000000000081526004018080602001828103825260208152602001807f4552433732313a206d696e7420746f20746865207a65726f206164647265737381525060200191505060405180910390fd5b6142b381613008565b15614326576040517f08c379a000000000000000000000000000000000000000000000000000000000815260040180806020018281038252601c8152602001807f4552433732313a20746f6b656e20616c7265616479206d696e7465640000000081525060200191505060405180910390fd5b61433260008383613ab2565b61438381600360008573ffffffffffffffffffffffffffffffffffffffff1673ffffffffffffffffffffffffffffffffffffffff168152602001908152602001600020613ad190919063ffffffff16565b5061439a81836004613aeb9092919063ffffffff16565b50808273ffffffffffffffffffffffffffffffffffffffff16600073ffffffffffffffffffffffffffffffffffffffff167fddf252ad1be2c89b69c2b068fc378daa952ba7f163c4a11628f55a4df523b3ef60405160405180910390a45050565b600080823b905060008111915050919050565b606061441d8484600085614426565b90509392505050565b606082471015614481576040517f08c379a00000000000000000000000000000000000000000000000000000000081526004018080602001828103825260268152602001806148696026913960400191505060405180910390fd5b61448a856143fb565b6144fc576040517f08c379a000000000000000000000000000000000000000000000000000000000815260040180806020018281038252601d8152602001807f416464726573733a2063616c6c20746f206e6f6e2d636f6e747261637400000081525060200191505060405180910390fd5b600060608673ffffffffffffffffffffffffffffffffffffffff1685876040518082805190602001908083835b6020831061454c5780518252602082019150602081019050602083039250614529565b6001836020036101000a03801982511681845116808217855250505050505090500191505060006040518083038185875af1925050503d80600081146145ae576040519150601f19603f3d011682016040523d82523d6000602084013e6145b3565b606091505b50915091506145c38282866145cf565b92505050949350505050565b606083156145df57829050614694565b6000835111156145f25782518084602001fd5b816040517f08c379a00000000000000000000000000000000000000000000000000000000081526004018080602001828103825283818151815260200191508051906020019080838360005b8381101561465957808201518184015260208101905061463e565b50505050905090810190601f1680156146865780820380516001836020036101000a031916815260200191505b509250505060405180910390fd5b9392505050565b604051806101600160405280600b90602082028036833780820191505090505090565b82600b81019282156146ed579160200282015b828111156146ec5782518255916020019190600101906146d1565b5b5090506146fa919061477e565b5090565b828054600181600116156101000203166002900490600052602060002090601f016020900481019282601f1061473f57805160ff191683800117855561476d565b8280016001018555821561476d579182015b8281111561476c578251825591602001919060010190614751565b5b50905061477a919061477e565b5090565b5b8082111561479757600081600090555060010161477f565b509056fe456e756d657261626c655365743a20696e646578206f7574206f6620626f756e6473416363657373436f6e74726f6c3a2073656e646572206d75737420626520616e2061646d696e20746f206772616e744552433732313a207472616e7366657220746f206e6f6e20455243373231526563656976657220696d706c656d656e7465724f776e61626c653a206e6577206f776e657220697320746865207a65726f20616464726573734552433732313a207472616e7366657220746f20746865207a65726f2061646472657373416464726573733a20696e73756666696369656e742062616c616e636520666f722063616c6c4552433732313a206f70657261746f7220717565727920666f72206e6f6e6578697374656e7420746f6b656e416363657373436f6e74726f6c3a2073656e646572206d75737420626520616e2061646d696e20746f207265766f6b654552433732313a20617070726f76652063616c6c6572206973206e6f74206f776e6572206e6f7220617070726f76656420666f7220616c6c4552433732313a2062616c616e636520717565727920666f7220746865207a65726f20616464726573734552433732313a206f776e657220717565727920666f72206e6f6e6578697374656e7420746f6b656e456e756d657261626c654d61703a20696e646578206f7574206f6620626f756e64734552433732313a20617070726f76656420717565727920666f72206e6f6e6578697374656e7420746f6b656e616333396166343739333131396565343662626666333531643863623662356632336461363032323231323661646434323638653236313139396132393231624552433732313a207472616e73666572206f6620746f6b656e2074686174206973206e6f74206f776e4552433732314d657461646174613a2055524920717565727920666f72206e6f6e6578697374656e7420746f6b656e4552433732313a20617070726f76616c20746f2063757272656e74206f776e65724552433732313a207472616e736665722063616c6c6572206973206e6f74206f776e6572206e6f7220617070726f766564416363657373436f6e74726f6c3a2063616e206f6e6c792072656e6f756e636520726f6c657320666f722073656c66a2646970667358221220a8422e69a73092772d5a7dc387a671370b5f08532e2c5904658782f8a3065c5864736f6c63430007000033",
  "immutableReferences": {},
  "source": "// SPDX-License-Identifier: MIT\r\n\r\npragma solidity >=0.6.0 <0.8.0;\r\n// pragma experimental ABIEncoderV2;\r\n\r\n/*\r\nimport \"https://github.com/OpenZeppelin/openzeppelin-contracts/blob/v3.4.0/contracts/access/Ownable.sol\";\r\nimport \"https://github.com/OpenZeppelin/openzeppelin-contracts/blob/v3.4.0/contracts/access/AccessControl.sol\";\r\nimport \"https://github.com/OpenZeppelin/openzeppelin-contracts/blob/v3.4.0/contracts/token/ERC721/ERC721.sol\";*/\r\n\r\nimport \"@openzeppelin/contracts/access/Ownable.sol\";\r\nimport \"@openzeppelin/contracts/access/AccessControl.sol\";\r\nimport \"@openzeppelin/contracts/token/ERC721/ERC721.sol\";\r\nimport \"./energy.sol\"; // VechainThor\r\n\r\ncontract VPunks is Context, Ownable, AccessControl, ERC721 {\r\n\r\n    using SafeMath for uint256;\r\n\r\n    // You can use this hash to verify the image file containing all the punks\r\n    string public constant imageHash = \"ac39af4793119ee46bbff351d8cb6b5f23da60222126add4268e261199a2921b\";\r\n\r\n    bytes32 public constant MINTER_ROLE = keccak256(\"MINTER_ROLE\");\r\n    mapping (address => uint256) public userMintCount; // for Airdrop\r\n\r\n    // for randomized\r\n    uint256[10] private punks_index = [0, 0, 0, 0, 0, 0, 0, 0, 0, 0];\r\n    uint256[] private punks_index_exists = [0, 1, 2, 3, 4, 5, 6, 7, 8, 9];\r\n    uint256 private constant punks_per_colum = 1000;\r\n    //\r\n    uint256 private _tokenIdCounter = 10000; // start mintWithRole\r\n    uint256[11] private _priceList = [1, 2, 3, 4, 5, 6, 7, 8, 9, 10, 11];\r\n    // [\"590000000000000000000\", \"1180000000000000000000\", \"1770000000000000000000\", \"2360000000000000000000\", \"2950000000000000000000\", \"3540000000000000000000\", \"4130000000000000000000\", \"4720000000000000000000\", \"5310000000000000000000\", \"5900000000000000000000\", \"5900000000000000000000\"];\r\n    // VechainThor\r\n    Energy constant energy = Energy(0x0000000000000000000000000000456E65726779); // E not e\r\n    \r\n    \r\n    // ----------------------------------------------------------------------------\r\n    constructor() ERC721(\"VPunks\", \"VPUNK\") {\r\n        _setupRole(DEFAULT_ADMIN_ROLE, _msgSender());\r\n        _setupRole(MINTER_ROLE, _msgSender());\r\n    }\r\n\r\n\r\n    // ----------------------------------------------------------------------------\r\n    // Write Contract\r\n    // ----------------------------------------------------------------------------\r\n    function mintNFT(uint256 numberOfNfts) external payable returns (bool[] memory results) {\r\n        results = new bool[](numberOfNfts);\r\n        \r\n        uint256 sendAmount = msg.value;\r\n        uint256 currPrice = getCurrentPrice();\r\n\r\n        for (uint i = 0; i < numberOfNfts; i++) {\r\n            if (sendAmount < currPrice) break;\r\n            uint256 tokenId = getNextPunkIndex(i);\r\n            if (_exists(tokenId)) continue;\r\n            _safeMint(_msgSender(), tokenId);\r\n            if (currPrice > 0) sendAmount = sendAmount.sub(currPrice);\r\n            results[i] = true;\r\n            userMintCount[_msgSender()] += 1;\r\n        }\r\n        if (sendAmount > 0) _msgSender().transfer(sendAmount);\r\n    }\r\n    //\r\n    function mintWithRole(uint256 numberOfNfts, address to) external payable returns (bool[] memory results) {\r\n        require(hasRole(MINTER_ROLE, _msgSender()), \"E1\");// E1 = ERC721: must have minter role\r\n        // require(to != address(0), \"ERC721: mint to the zero address\"); // no need to check because ERC721 checked\r\n    \r\n        results = new bool[](numberOfNfts);\r\n        uint256 sendAmount = msg.value;\r\n        uint256 currPrice = _priceList[10];\r\n\r\n        for (uint i = 0; i < numberOfNfts; i++) {\r\n            if (sendAmount < currPrice) break;\r\n            if (_exists(_tokenIdCounter) == false) {\r\n                _safeMint(to, _tokenIdCounter);\r\n                if (currPrice > 0) sendAmount = sendAmount.sub(currPrice);\r\n                results[i] = true;\r\n            }\r\n            _tokenIdCounter += 1;\r\n        }\r\n        if (sendAmount > 0) _msgSender().transfer(sendAmount);\r\n    }\r\n    // ----------------------------------------------------------------------------\r\n    // end Write Contract\r\n    // ----------------------------------------------------------------------------\r\n\r\n\r\n\r\n    // ----------------------------------------------------------------------------\r\n    // internal|private Contract\r\n    // ----------------------------------------------------------------------------\r\n    function getNextPunkIndex(uint256 nonce) private returns (uint256) {\r\n        uint256 length = punks_index_exists.length;\r\n        if (length == 0) return 0;\r\n        uint256 colum_index = uint256 (keccak256(abi.encodePacked(block.timestamp + nonce))) % length;\r\n        uint256 p_index = punks_index[punks_index_exists[colum_index]] + punks_index_exists[colum_index] * punks_per_colum;\r\n        punks_index[punks_index_exists[colum_index]] += 1;\r\n        \r\n        if (punks_index[punks_index_exists[colum_index]] >= punks_per_colum){\r\n            if (colum_index < length - 1) {\r\n                punks_index_exists[colum_index] = punks_index_exists[length - 1];\r\n            }\r\n            punks_index_exists.pop();\r\n        }\r\n        return p_index;\r\n    }\r\n    // ----------------------------------------------------------------------------\r\n    // end internal|private Contract\r\n    // ----------------------------------------------------------------------------\r\n\r\n\r\n\r\n    // ----------------------------------------------------------------------------\r\n    // Read Contract\r\n    // ----------------------------------------------------------------------------\r\n    function getPriceList() public view returns (uint256[11] memory) {\r\n        return _priceList;\r\n    }\r\n    //\r\n    function getMintRolePrice() public view returns (uint256) {\r\n        return _priceList[10];\r\n    }\r\n    //\r\n    function getCurrentPrice() public view returns (uint256) {\r\n        uint256 mined = 0;\r\n        uint256 phase = 0;\r\n        for (uint i = 0; i < punks_index.length; i++) {\r\n            mined += punks_index[i];\r\n        }\r\n        phase = mined/punks_per_colum;\r\n        return _priceList[phase];\r\n    }\r\n    //\r\n    function remainingNFT() public view returns (uint256 result) {\r\n        for (uint i = 0; i < punks_index.length; i++) {\r\n            result += punks_per_colum - punks_index[i];\r\n        }\r\n    }\r\n    // ----------------------------------------------------------------------------\r\n    // end Read Contract\r\n    // ----------------------------------------------------------------------------\r\n\r\n\r\n    \r\n    // ----------------------------------------------------------------------------\r\n    // onlyOwner Write Contract\r\n    // ----------------------------------------------------------------------------\r\n    function setBaseURI(string memory baseURI_) public onlyOwner {\r\n        _setBaseURI(baseURI_);\r\n    }\r\n    //\r\n    function updatePriceList(uint256[11] memory priceList_) public onlyOwner {\r\n        _priceList = priceList_;\r\n    }\r\n    //\r\n    function ownerWithdraw(address payable recipient, uint256 amount) external onlyOwner {\r\n        require(recipient != address(0), \"E2\");// E2 = ERC721: transfer to the zero address\r\n        require(recipient != address(this), \"E3\");// E3 = ERC721: transfer to this contract address\r\n        if (amount > address(this).balance) amount = address(this).balance;\r\n        recipient.transfer(amount);\r\n    }\r\n    // VechainThor\r\n    function ownerWithdrawVtho(address payable recipient, uint256 amount) external onlyOwner {\r\n        // to save gas will not check E2, E3\r\n        energy.transfer(recipient, amount);\r\n    }\r\n    /*\r\n    function setTokenURI(uint tokenId, string memory _tokenURI) public onlyOwner {\r\n        _setTokenURI(tokenId, _tokenURI);\r\n    }\r\n    function burnToken(uint tokenId) public onlyOwner {\r\n        require(ERC721.ownerOf(tokenId) == _msgSender(), \"ERC721: sender must be an admin to grant\");\r\n        _burn(tokenId);\r\n    }*/\r\n    // ----------------------------------------------------------------------------\r\n    // end onlyOwner Write Contract\r\n    // ----------------------------------------------------------------------------\r\n\r\n\r\n\r\n    // ----------------------------------------------------------------------------\r\n    // onlyOwner Read Contract\r\n    // ----------------------------------------------------------------------------\r\n    function checkBalances() onlyOwner public view returns (uint256 balance) {\r\n        balance = address(this).balance;\r\n    }\r\n    // ----------------------------------------------------------------------------\r\n    // end onlyOwner Read Contract\r\n    // ----------------------------------------------------------------------------\r\n}\r\n",
  "sourcePath": "C:/Working/Blockchain/Vechain/0_tvt/Vpunks/contracts/VPunks.sol",
  "compiler": {
    "name": "solc",
    "version": "0.7.0+commit.9e61f92b.Emscripten.clang"
  },
  "schemaVersion": "3.3.4",
  "updatedAt": "2021-07-25T02:43:57.364Z",
  "networkType": "ethereum",
  "devdoc": {
    "kind": "dev",
    "methods": {
      "approve(address,uint256)": {
        "details": "See {IERC721-approve}."
      },
      "balanceOf(address)": {
        "details": "See {IERC721-balanceOf}."
      },
      "baseURI()": {
        "details": "Returns the base URI set via {_setBaseURI}. This will be automatically added as a prefix in {tokenURI} to each token's URI, or to the token ID if no specific URI is set for that token ID."
      },
      "getApproved(uint256)": {
        "details": "See {IERC721-getApproved}."
      },
      "getRoleAdmin(bytes32)": {
        "details": "Returns the admin role that controls `role`. See {grantRole} and {revokeRole}. To change a role's admin, use {_setRoleAdmin}."
      },
      "getRoleMember(bytes32,uint256)": {
        "details": "Returns one of the accounts that have `role`. `index` must be a value between 0 and {getRoleMemberCount}, non-inclusive. Role bearers are not sorted in any particular way, and their ordering may change at any point. WARNING: When using {getRoleMember} and {getRoleMemberCount}, make sure you perform all queries on the same block. See the following https://forum.openzeppelin.com/t/iterating-over-elements-on-enumerableset-in-openzeppelin-contracts/2296[forum post] for more information."
      },
      "getRoleMemberCount(bytes32)": {
        "details": "Returns the number of accounts that have `role`. Can be used together with {getRoleMember} to enumerate all bearers of a role."
      },
      "grantRole(bytes32,address)": {
        "details": "Grants `role` to `account`. If `account` had not been already granted `role`, emits a {RoleGranted} event. Requirements: - the caller must have ``role``'s admin role."
      },
      "hasRole(bytes32,address)": {
        "details": "Returns `true` if `account` has been granted `role`."
      },
      "isApprovedForAll(address,address)": {
        "details": "See {IERC721-isApprovedForAll}."
      },
      "name()": {
        "details": "See {IERC721Metadata-name}."
      },
      "owner()": {
        "details": "Returns the address of the current owner."
      },
      "ownerOf(uint256)": {
        "details": "See {IERC721-ownerOf}."
      },
      "renounceOwnership()": {
        "details": "Leaves the contract without owner. It will not be possible to call `onlyOwner` functions anymore. Can only be called by the current owner. NOTE: Renouncing ownership will leave the contract without an owner, thereby removing any functionality that is only available to the owner."
      },
      "renounceRole(bytes32,address)": {
        "details": "Revokes `role` from the calling account. Roles are often managed via {grantRole} and {revokeRole}: this function's purpose is to provide a mechanism for accounts to lose their privileges if they are compromised (such as when a trusted device is misplaced). If the calling account had been granted `role`, emits a {RoleRevoked} event. Requirements: - the caller must be `account`."
      },
      "revokeRole(bytes32,address)": {
        "details": "Revokes `role` from `account`. If `account` had been granted `role`, emits a {RoleRevoked} event. Requirements: - the caller must have ``role``'s admin role."
      },
      "safeTransferFrom(address,address,uint256)": {
        "details": "See {IERC721-safeTransferFrom}."
      },
      "safeTransferFrom(address,address,uint256,bytes)": {
        "details": "See {IERC721-safeTransferFrom}."
      },
      "setApprovalForAll(address,bool)": {
        "details": "See {IERC721-setApprovalForAll}."
      },
      "supportsInterface(bytes4)": {
        "details": "See {IERC165-supportsInterface}. Time complexity O(1), guaranteed to always use less than 30 000 gas."
      },
      "symbol()": {
        "details": "See {IERC721Metadata-symbol}."
      },
      "tokenByIndex(uint256)": {
        "details": "See {IERC721Enumerable-tokenByIndex}."
      },
      "tokenOfOwnerByIndex(address,uint256)": {
        "details": "See {IERC721Enumerable-tokenOfOwnerByIndex}."
      },
      "tokenURI(uint256)": {
        "details": "See {IERC721Metadata-tokenURI}."
      },
      "totalSupply()": {
        "details": "See {IERC721Enumerable-totalSupply}."
      },
      "transferFrom(address,address,uint256)": {
        "details": "See {IERC721-transferFrom}."
      },
      "transferOwnership(address)": {
        "details": "Transfers ownership of the contract to a new account (`newOwner`). Can only be called by the current owner."
      }
    },
    "version": 1
  },
  "userdoc": {
    "kind": "user",
    "methods": {},
    "version": 1
  }
}